{
  "_format": "hh-sol-artifact-1",
  "contractName": "DriverLicense",
  "sourceName": "contracts/soulbound.sol",
  "abi": [
    {
      "inputs": [],
      "stateMutability": "nonpayable",
      "type": "constructor"
    },
    {
      "anonymous": false,
      "inputs": [
        {
          "indexed": true,
          "internalType": "address",
          "name": "owner",
          "type": "address"
        },
        {
          "indexed": true,
          "internalType": "address",
          "name": "approved",
          "type": "address"
        },
        {
          "indexed": true,
          "internalType": "uint256",
          "name": "tokenId",
          "type": "uint256"
        }
      ],
      "name": "Approval",
      "type": "event"
    },
    {
      "anonymous": false,
      "inputs": [
        {
          "indexed": true,
          "internalType": "address",
          "name": "owner",
          "type": "address"
        },
        {
          "indexed": true,
          "internalType": "address",
          "name": "operator",
          "type": "address"
        },
        {
          "indexed": false,
          "internalType": "bool",
          "name": "approved",
          "type": "bool"
        }
      ],
      "name": "ApprovalForAll",
      "type": "event"
    },
    {
      "anonymous": false,
      "inputs": [
        {
          "indexed": true,
          "internalType": "address",
          "name": "to",
          "type": "address"
        },
        {
          "indexed": true,
          "internalType": "uint256",
          "name": "tokenId",
          "type": "uint256"
        }
      ],
      "name": "Attest",
      "type": "event"
    },
    {
      "anonymous": false,
      "inputs": [
        {
          "indexed": true,
          "internalType": "address",
          "name": "previousOwner",
          "type": "address"
        },
        {
          "indexed": true,
          "internalType": "address",
          "name": "newOwner",
          "type": "address"
        }
      ],
      "name": "OwnershipTransferred",
      "type": "event"
    },
    {
      "anonymous": false,
      "inputs": [
        {
          "indexed": true,
          "internalType": "address",
          "name": "to",
          "type": "address"
        },
        {
          "indexed": true,
          "internalType": "uint256",
          "name": "tokenId",
          "type": "uint256"
        }
      ],
      "name": "Revoke",
      "type": "event"
    },
    {
      "anonymous": false,
      "inputs": [
        {
          "indexed": true,
          "internalType": "address",
          "name": "from",
          "type": "address"
        },
        {
          "indexed": true,
          "internalType": "address",
          "name": "to",
          "type": "address"
        },
        {
          "indexed": true,
          "internalType": "uint256",
          "name": "tokenId",
          "type": "uint256"
        }
      ],
      "name": "Transfer",
      "type": "event"
    },
    {
      "inputs": [
        {
          "internalType": "address",
          "name": "from",
          "type": "address"
        },
        {
          "internalType": "address",
          "name": "to",
          "type": "address"
        },
        {
          "internalType": "uint256",
          "name": "tokenId",
          "type": "uint256"
        }
      ],
      "name": "_afterTokenTransfer",
      "outputs": [],
      "stateMutability": "nonpayable",
      "type": "function"
    },
    {
      "inputs": [
        {
          "internalType": "address",
          "name": "from",
          "type": "address"
        },
        {
          "internalType": "address",
          "name": "to",
          "type": "address"
        },
        {
          "internalType": "uint256",
          "name": "",
          "type": "uint256"
        }
      ],
      "name": "_beforeTokenTransfer",
      "outputs": [],
      "stateMutability": "pure",
      "type": "function"
    },
    {
      "inputs": [
        {
          "internalType": "address",
          "name": "to",
          "type": "address"
        },
        {
          "internalType": "uint256",
          "name": "tokenId",
          "type": "uint256"
        }
      ],
      "name": "approve",
      "outputs": [],
      "stateMutability": "nonpayable",
      "type": "function"
    },
    {
      "inputs": [
        {
          "internalType": "address",
          "name": "owner",
          "type": "address"
        }
      ],
      "name": "balanceOf",
      "outputs": [
        {
          "internalType": "uint256",
          "name": "",
          "type": "uint256"
        }
      ],
      "stateMutability": "view",
      "type": "function"
    },
    {
      "inputs": [
        {
          "internalType": "uint256",
          "name": "tokenId",
          "type": "uint256"
        }
      ],
      "name": "burn",
      "outputs": [],
      "stateMutability": "nonpayable",
      "type": "function"
    },
    {
      "inputs": [
        {
          "internalType": "uint256",
          "name": "tokenId",
          "type": "uint256"
        }
      ],
      "name": "getApproved",
      "outputs": [
        {
          "internalType": "address",
          "name": "",
          "type": "address"
        }
      ],
      "stateMutability": "view",
      "type": "function"
    },
    {
      "inputs": [
        {
          "internalType": "address",
          "name": "owner",
          "type": "address"
        },
        {
          "internalType": "address",
          "name": "operator",
          "type": "address"
        }
      ],
      "name": "isApprovedForAll",
      "outputs": [
        {
          "internalType": "bool",
          "name": "",
          "type": "bool"
        }
      ],
      "stateMutability": "view",
      "type": "function"
    },
    {
      "inputs": [],
      "name": "name",
      "outputs": [
        {
          "internalType": "string",
          "name": "",
          "type": "string"
        }
      ],
      "stateMutability": "view",
      "type": "function"
    },
    {
      "inputs": [],
      "name": "owner",
      "outputs": [
        {
          "internalType": "address",
          "name": "",
          "type": "address"
        }
      ],
      "stateMutability": "view",
      "type": "function"
    },
    {
      "inputs": [
        {
          "internalType": "uint256",
          "name": "tokenId",
          "type": "uint256"
        }
      ],
      "name": "ownerOf",
      "outputs": [
        {
          "internalType": "address",
          "name": "",
          "type": "address"
        }
      ],
      "stateMutability": "view",
      "type": "function"
    },
    {
      "inputs": [],
      "name": "renounceOwnership",
      "outputs": [],
      "stateMutability": "nonpayable",
      "type": "function"
    },
    {
      "inputs": [
        {
          "internalType": "uint256",
          "name": "tokenId",
          "type": "uint256"
        }
      ],
      "name": "revoke",
      "outputs": [],
      "stateMutability": "nonpayable",
      "type": "function"
    },
    {
      "inputs": [
        {
          "internalType": "address",
          "name": "to",
          "type": "address"
        },
        {
          "internalType": "string",
          "name": "uri",
          "type": "string"
        }
      ],
      "name": "safeMint",
      "outputs": [],
      "stateMutability": "nonpayable",
      "type": "function"
    },
    {
      "inputs": [
        {
          "internalType": "address",
          "name": "from",
          "type": "address"
        },
        {
          "internalType": "address",
          "name": "to",
          "type": "address"
        },
        {
          "internalType": "uint256",
          "name": "tokenId",
          "type": "uint256"
        }
      ],
      "name": "safeTransferFrom",
      "outputs": [],
      "stateMutability": "nonpayable",
      "type": "function"
    },
    {
      "inputs": [
        {
          "internalType": "address",
          "name": "from",
          "type": "address"
        },
        {
          "internalType": "address",
          "name": "to",
          "type": "address"
        },
        {
          "internalType": "uint256",
          "name": "tokenId",
          "type": "uint256"
        },
        {
          "internalType": "bytes",
          "name": "data",
          "type": "bytes"
        }
      ],
      "name": "safeTransferFrom",
      "outputs": [],
      "stateMutability": "nonpayable",
      "type": "function"
    },
    {
      "inputs": [
        {
          "internalType": "address",
          "name": "operator",
          "type": "address"
        },
        {
          "internalType": "bool",
          "name": "approved",
          "type": "bool"
        }
      ],
      "name": "setApprovalForAll",
      "outputs": [],
      "stateMutability": "nonpayable",
      "type": "function"
    },
    {
      "inputs": [
        {
          "internalType": "bytes4",
          "name": "interfaceId",
          "type": "bytes4"
        }
      ],
      "name": "supportsInterface",
      "outputs": [
        {
          "internalType": "bool",
          "name": "",
          "type": "bool"
        }
      ],
      "stateMutability": "view",
      "type": "function"
    },
    {
      "inputs": [],
      "name": "symbol",
      "outputs": [
        {
          "internalType": "string",
          "name": "",
          "type": "string"
        }
      ],
      "stateMutability": "view",
      "type": "function"
    },
    {
      "inputs": [
        {
          "internalType": "uint256",
          "name": "tokenId",
          "type": "uint256"
        }
      ],
      "name": "tokenURI",
      "outputs": [
        {
          "internalType": "string",
          "name": "",
          "type": "string"
        }
      ],
      "stateMutability": "view",
      "type": "function"
    },
    {
      "inputs": [
        {
          "internalType": "address",
          "name": "from",
          "type": "address"
        },
        {
          "internalType": "address",
          "name": "to",
          "type": "address"
        },
        {
          "internalType": "uint256",
          "name": "tokenId",
          "type": "uint256"
        }
      ],
      "name": "transferFrom",
      "outputs": [],
      "stateMutability": "nonpayable",
      "type": "function"
    },
    {
      "inputs": [
        {
          "internalType": "address",
          "name": "newOwner",
          "type": "address"
        }
      ],
      "name": "transferOwnership",
      "outputs": [],
      "stateMutability": "nonpayable",
      "type": "function"
    }
  ],
  "bytecode": "0x60806040523480156200001157600080fd5b506040518060400160405280600e81526020017f5765623320436c756220546f75720000000000000000000000000000000000008152506040518060400160405280600481526020017f573343540000000000000000000000000000000000000000000000000000000081525081600090816200008f919062000412565b508060019081620000a1919062000412565b505050620000c4620000b8620000ca60201b60201c565b620000d260201b60201c565b620004f9565b600033905090565b6000600760009054906101000a900473ffffffffffffffffffffffffffffffffffffffff16905081600760006101000a81548173ffffffffffffffffffffffffffffffffffffffff021916908373ffffffffffffffffffffffffffffffffffffffff1602179055508173ffffffffffffffffffffffffffffffffffffffff168173ffffffffffffffffffffffffffffffffffffffff167f8be0079c531659141344cd1fd0a4f28419497f9722a3daafe3b4186f6b6457e060405160405180910390a35050565b600081519050919050565b7f4e487b7100000000000000000000000000000000000000000000000000000000600052604160045260246000fd5b7f4e487b7100000000000000000000000000000000000000000000000000000000600052602260045260246000fd5b600060028204905060018216806200021a57607f821691505b60208210810362000230576200022f620001d2565b5b50919050565b60008190508160005260206000209050919050565b60006020601f8301049050919050565b600082821b905092915050565b6000600883026200029a7fffffffffffffffffffffffffffffffffffffffffffffffffffffffffffffffff826200025b565b620002a686836200025b565b95508019841693508086168417925050509392505050565b6000819050919050565b6000819050919050565b6000620002f3620002ed620002e784620002be565b620002c8565b620002be565b9050919050565b6000819050919050565b6200030f83620002d2565b620003276200031e82620002fa565b84845462000268565b825550505050565b600090565b6200033e6200032f565b6200034b81848462000304565b505050565b5b8181101562000373576200036760008262000334565b60018101905062000351565b5050565b601f821115620003c2576200038c8162000236565b62000397846200024b565b81016020851015620003a7578190505b620003bf620003b6856200024b565b83018262000350565b50505b505050565b600082821c905092915050565b6000620003e760001984600802620003c7565b1980831691505092915050565b6000620004028383620003d4565b9150826002028217905092915050565b6200041d8262000198565b67ffffffffffffffff811115620004395762000438620001a3565b5b62000445825462000201565b6200045282828562000377565b600060209050601f8311600181146200048a576000841562000475578287015190505b620004818582620003f4565b865550620004f1565b601f1984166200049a8662000236565b60005b82811015620004c4578489015182556001820191506020850194506020810190506200049d565b86831015620004e45784890151620004e0601f891682620003d4565b8355505b6001600288020188555050505b505050505050565b61340980620005096000396000f3fe608060405234801561001057600080fd5b50600436106101375760003560e01c8063715018a6116100b8578063b88d4fde1161007c578063b88d4fde14610324578063c87b56dd14610340578063cad3be8314610370578063d204c45e1461038c578063e985e9c5146103a8578063f2fde38b146103d857610137565b8063715018a6146102a65780638da5cb5b146102b05780638f811a1c146102ce57806395d89b41146102ea578063a22cb4651461030857610137565b806323b872dd116100ff57806323b872dd146101f257806342842e0e1461020e57806342966c681461022a5780636352211e1461024657806370a082311461027657610137565b806301ffc9a71461013c57806306fdde031461016c578063081812fc1461018a578063095ea7b3146101ba57806320c5429b146101d6575b600080fd5b610156600480360381019061015191906120fc565b6103f4565b6040516101639190612144565b60405180910390f35b6101746104d6565b60405161018191906121ef565b60405180910390f35b6101a4600480360381019061019f9190612247565b610568565b6040516101b191906122b5565b60405180910390f35b6101d460048036038101906101cf91906122fc565b6105ae565b005b6101f060048036038101906101eb9190612247565b6106c5565b005b61020c6004803603810190610207919061233c565b6106d9565b005b6102286004803603810190610223919061233c565b610739565b005b610244600480360381019061023f9190612247565b610759565b005b610260600480360381019061025b9190612247565b6107db565b60405161026d91906122b5565b60405180910390f35b610290600480360381019061028b919061238f565b610861565b60405161029d91906123cb565b60405180910390f35b6102ae610918565b005b6102b861092c565b6040516102c591906122b5565b60405180910390f35b6102e860048036038101906102e3919061233c565b610956565b005b6102f2610a52565b6040516102ff91906121ef565b60405180910390f35b610322600480360381019061031d9190612412565b610ae4565b005b61033e60048036038101906103399190612587565b610afa565b005b61035a60048036038101906103559190612247565b610b5c565b60405161036791906121ef565b60405180910390f35b61038a6004803603810190610385919061233c565b610b6e565b005b6103a660048036038101906103a191906126ab565b610c19565b005b6103c260048036038101906103bd9190612707565b610c52565b6040516103cf9190612144565b60405180910390f35b6103f260048036038101906103ed919061238f565b610ce6565b005b60007f80ac58cd000000000000000000000000000000000000000000000000000000007bffffffffffffffffffffffffffffffffffffffffffffffffffffffff1916827bffffffffffffffffffffffffffffffffffffffffffffffffffffffff191614806104bf57507f5b5e139f000000000000000000000000000000000000000000000000000000007bffffffffffffffffffffffffffffffffffffffffffffffffffffffff1916827bffffffffffffffffffffffffffffffffffffffffffffffffffffffff1916145b806104cf57506104ce82610d69565b5b9050919050565b6060600080546104e590612776565b80601f016020809104026020016040519081016040528092919081815260200182805461051190612776565b801561055e5780601f106105335761010080835404028352916020019161055e565b820191906000526020600020905b81548152906001019060200180831161054157829003601f168201915b5050505050905090565b600061057382610dd3565b6004600083815260200190815260200160002060009054906101000a900473ffffffffffffffffffffffffffffffffffffffff169050919050565b60006105b9826107db565b90508073ffffffffffffffffffffffffffffffffffffffff168373ffffffffffffffffffffffffffffffffffffffff1603610629576040517f08c379a000000000000000000000000000000000000000000000000000000000815260040161062090612819565b60405180910390fd5b8073ffffffffffffffffffffffffffffffffffffffff16610648610e1e565b73ffffffffffffffffffffffffffffffffffffffff161480610677575061067681610671610e1e565b610c52565b5b6106b6576040517f08c379a00000000000000000000000000000000000000000000000000000000081526004016106ad906128ab565b60405180910390fd5b6106c08383610e26565b505050565b6106cd610edf565b6106d681610f5d565b50565b6106ea6106e4610e1e565b82610f69565b610729576040517f08c379a00000000000000000000000000000000000000000000000000000000081526004016107209061293d565b60405180910390fd5b610734838383610ffe565b505050565b61075483838360405180602001604052806000815250610afa565b505050565b3373ffffffffffffffffffffffffffffffffffffffff16610779826107db565b73ffffffffffffffffffffffffffffffffffffffff16146107cf576040517f08c379a00000000000000000000000000000000000000000000000000000000081526004016107c6906129cf565b60405180910390fd5b6107d881610f5d565b50565b6000806107e7836112f7565b9050600073ffffffffffffffffffffffffffffffffffffffff168173ffffffffffffffffffffffffffffffffffffffff1603610858576040517f08c379a000000000000000000000000000000000000000000000000000000000815260040161084f90612a3b565b60405180910390fd5b80915050919050565b60008073ffffffffffffffffffffffffffffffffffffffff168273ffffffffffffffffffffffffffffffffffffffff16036108d1576040517f08c379a00000000000000000000000000000000000000000000000000000000081526004016108c890612acd565b60405180910390fd5b600360008373ffffffffffffffffffffffffffffffffffffffff1673ffffffffffffffffffffffffffffffffffffffff168152602001908152602001600020549050919050565b610920610edf565b61092a6000611334565b565b6000600760009054906101000a900473ffffffffffffffffffffffffffffffffffffffff16905090565b600073ffffffffffffffffffffffffffffffffffffffff168373ffffffffffffffffffffffffffffffffffffffff16036109d357808273ffffffffffffffffffffffffffffffffffffffff167fe9274a84b19e9428826de6bae8c48329354f8f0e73f771b97cae2d9dccd45a2760405160405180910390a3610a4d565b600073ffffffffffffffffffffffffffffffffffffffff168273ffffffffffffffffffffffffffffffffffffffff1603610a4c57808273ffffffffffffffffffffffffffffffffffffffff167fec9ab91322523c899ede7830ec9bfc992b5981cdcc27b91162fb23de5791117b60405160405180910390a35b5b505050565b606060018054610a6190612776565b80601f0160208091040260200160405190810160405280929190818152602001828054610a8d90612776565b8015610ada5780601f10610aaf57610100808354040283529160200191610ada565b820191906000526020600020905b815481529060010190602001808311610abd57829003601f168201915b5050505050905090565b610af6610aef610e1e565b83836113fa565b5050565b610b0b610b05610e1e565b83610f69565b610b4a576040517f08c379a0000000000000000000000000000000000000000000000000000000008152600401610b419061293d565b60405180910390fd5b610b5684848484611566565b50505050565b6060610b67826115c2565b9050919050565b600073ffffffffffffffffffffffffffffffffffffffff168373ffffffffffffffffffffffffffffffffffffffff161480610bd55750600073ffffffffffffffffffffffffffffffffffffffff168273ffffffffffffffffffffffffffffffffffffffff16145b610c14576040517f08c379a0000000000000000000000000000000000000000000000000000000008152600401610c0b90612b39565b60405180910390fd5b505050565b610c21610edf565b6000610c2d60086116d4565b9050610c3960086116e2565b610c4383826116f8565b610c4d8183611716565b505050565b6000600560008473ffffffffffffffffffffffffffffffffffffffff1673ffffffffffffffffffffffffffffffffffffffff16815260200190815260200160002060008373ffffffffffffffffffffffffffffffffffffffff1673ffffffffffffffffffffffffffffffffffffffff16815260200190815260200160002060009054906101000a900460ff16905092915050565b610cee610edf565b600073ffffffffffffffffffffffffffffffffffffffff168173ffffffffffffffffffffffffffffffffffffffff1603610d5d576040517f08c379a0000000000000000000000000000000000000000000000000000000008152600401610d5490612bcb565b60405180910390fd5b610d6681611334565b50565b60007f01ffc9a7000000000000000000000000000000000000000000000000000000007bffffffffffffffffffffffffffffffffffffffffffffffffffffffff1916827bffffffffffffffffffffffffffffffffffffffffffffffffffffffff1916149050919050565b610ddc81611783565b610e1b576040517f08c379a0000000000000000000000000000000000000000000000000000000008152600401610e1290612a3b565b60405180910390fd5b50565b600033905090565b816004600083815260200190815260200160002060006101000a81548173ffffffffffffffffffffffffffffffffffffffff021916908373ffffffffffffffffffffffffffffffffffffffff160217905550808273ffffffffffffffffffffffffffffffffffffffff16610e99836107db565b73ffffffffffffffffffffffffffffffffffffffff167f8c5be1e5ebec7d5bd14f71427d1e84f3dd0314c0f7b2291e5b200ac8c7c3b92560405160405180910390a45050565b610ee7610e1e565b73ffffffffffffffffffffffffffffffffffffffff16610f0561092c565b73ffffffffffffffffffffffffffffffffffffffff1614610f5b576040517f08c379a0000000000000000000000000000000000000000000000000000000008152600401610f5290612c37565b60405180910390fd5b565b610f66816117c4565b50565b600080610f75836107db565b90508073ffffffffffffffffffffffffffffffffffffffff168473ffffffffffffffffffffffffffffffffffffffff161480610fb75750610fb68185610c52565b5b80610ff557508373ffffffffffffffffffffffffffffffffffffffff16610fdd84610568565b73ffffffffffffffffffffffffffffffffffffffff16145b91505092915050565b8273ffffffffffffffffffffffffffffffffffffffff1661101e826107db565b73ffffffffffffffffffffffffffffffffffffffff1614611074576040517f08c379a000000000000000000000000000000000000000000000000000000000815260040161106b90612cc9565b60405180910390fd5b600073ffffffffffffffffffffffffffffffffffffffff168273ffffffffffffffffffffffffffffffffffffffff16036110e3576040517f08c379a00000000000000000000000000000000000000000000000000000000081526004016110da90612d5b565b60405180910390fd5b6110f08383836001611817565b8273ffffffffffffffffffffffffffffffffffffffff16611110826107db565b73ffffffffffffffffffffffffffffffffffffffff1614611166576040517f08c379a000000000000000000000000000000000000000000000000000000000815260040161115d90612cc9565b60405180910390fd5b6004600082815260200190815260200160002060006101000a81549073ffffffffffffffffffffffffffffffffffffffff02191690556001600360008573ffffffffffffffffffffffffffffffffffffffff1673ffffffffffffffffffffffffffffffffffffffff168152602001908152602001600020600082825403925050819055506001600360008473ffffffffffffffffffffffffffffffffffffffff1673ffffffffffffffffffffffffffffffffffffffff16815260200190815260200160002060008282540192505081905550816002600083815260200190815260200160002060006101000a81548173ffffffffffffffffffffffffffffffffffffffff021916908373ffffffffffffffffffffffffffffffffffffffff160217905550808273ffffffffffffffffffffffffffffffffffffffff168473ffffffffffffffffffffffffffffffffffffffff167fddf252ad1be2c89b69c2b068fc378daa952ba7f163c4a11628f55a4df523b3ef60405160405180910390a46112f2838383600161181d565b505050565b60006002600083815260200190815260200160002060009054906101000a900473ffffffffffffffffffffffffffffffffffffffff169050919050565b6000600760009054906101000a900473ffffffffffffffffffffffffffffffffffffffff16905081600760006101000a81548173ffffffffffffffffffffffffffffffffffffffff021916908373ffffffffffffffffffffffffffffffffffffffff1602179055508173ffffffffffffffffffffffffffffffffffffffff168173ffffffffffffffffffffffffffffffffffffffff167f8be0079c531659141344cd1fd0a4f28419497f9722a3daafe3b4186f6b6457e060405160405180910390a35050565b8173ffffffffffffffffffffffffffffffffffffffff168373ffffffffffffffffffffffffffffffffffffffff1603611468576040517f08c379a000000000000000000000000000000000000000000000000000000000815260040161145f90612dc7565b60405180910390fd5b80600560008573ffffffffffffffffffffffffffffffffffffffff1673ffffffffffffffffffffffffffffffffffffffff16815260200190815260200160002060008473ffffffffffffffffffffffffffffffffffffffff1673ffffffffffffffffffffffffffffffffffffffff16815260200190815260200160002060006101000a81548160ff0219169083151502179055508173ffffffffffffffffffffffffffffffffffffffff168373ffffffffffffffffffffffffffffffffffffffff167f17307eab39ab6107e8899845ad3d59bd9653f200f220920489ca2b5937696c31836040516115599190612144565b60405180910390a3505050565b611571848484610ffe565b61157d84848484611823565b6115bc576040517f08c379a00000000000000000000000000000000000000000000000000000000081526004016115b390612e59565b60405180910390fd5b50505050565b60606115cd82610dd3565b60006006600084815260200190815260200160002080546115ed90612776565b80601f016020809104026020016040519081016040528092919081815260200182805461161990612776565b80156116665780601f1061163b57610100808354040283529160200191611666565b820191906000526020600020905b81548152906001019060200180831161164957829003601f168201915b5050505050905060006116776119aa565b9050600081510361168c5781925050506116cf565b6000825111156116c15780826040516020016116a9929190612eb5565b604051602081830303815290604052925050506116cf565b6116ca846119c1565b925050505b919050565b600081600001549050919050565b6001816000016000828254019250508190555050565b611712828260405180602001604052806000815250611a29565b5050565b61171f82611783565b61175e576040517f08c379a000000000000000000000000000000000000000000000000000000000815260040161175590612f4b565b60405180910390fd5b8060066000848152602001908152602001600020908161177e9190613117565b505050565b60008073ffffffffffffffffffffffffffffffffffffffff166117a5836112f7565b73ffffffffffffffffffffffffffffffffffffffff1614159050919050565b6117cd81611a84565b60006006600083815260200190815260200160002080546117ed90612776565b905014611814576006600082815260200190815260200160002060006118139190612033565b5b50565b50505050565b50505050565b60006118448473ffffffffffffffffffffffffffffffffffffffff16611bd2565b1561199d578373ffffffffffffffffffffffffffffffffffffffff1663150b7a0261186d610e1e565b8786866040518563ffffffff1660e01b815260040161188f949392919061323e565b6020604051808303816000875af19250505080156118cb57506040513d601f19601f820116820180604052508101906118c8919061329f565b60015b61194d573d80600081146118fb576040519150601f19603f3d011682016040523d82523d6000602084013e611900565b606091505b506000815103611945576040517f08c379a000000000000000000000000000000000000000000000000000000000815260040161193c90612e59565b60405180910390fd5b805181602001fd5b63150b7a0260e01b7bffffffffffffffffffffffffffffffffffffffffffffffffffffffff1916817bffffffffffffffffffffffffffffffffffffffffffffffffffffffff1916149150506119a2565b600190505b949350505050565b606060405180602001604052806000815250905090565b60606119cc82610dd3565b60006119d66119aa565b905060008151116119f65760405180602001604052806000815250611a21565b80611a0084611bf5565b604051602001611a11929190612eb5565b6040516020818303038152906040525b915050919050565b611a338383611cc3565b611a406000848484611823565b611a7f576040517f08c379a0000000000000000000000000000000000000000000000000000000008152600401611a7690612e59565b60405180910390fd5b505050565b6000611a8f826107db565b9050611a9f816000846001611817565b611aa8826107db565b90506004600083815260200190815260200160002060006101000a81549073ffffffffffffffffffffffffffffffffffffffff02191690556001600360008373ffffffffffffffffffffffffffffffffffffffff1673ffffffffffffffffffffffffffffffffffffffff168152602001908152602001600020600082825403925050819055506002600083815260200190815260200160002060006101000a81549073ffffffffffffffffffffffffffffffffffffffff021916905581600073ffffffffffffffffffffffffffffffffffffffff168273ffffffffffffffffffffffffffffffffffffffff167fddf252ad1be2c89b69c2b068fc378daa952ba7f163c4a11628f55a4df523b3ef60405160405180910390a4611bce81600084600161181d565b5050565b6000808273ffffffffffffffffffffffffffffffffffffffff163b119050919050565b606060006001611c0484611ee0565b01905060008167ffffffffffffffff811115611c2357611c2261245c565b5b6040519080825280601f01601f191660200182016040528015611c555781602001600182028036833780820191505090505b509050600082602001820190505b600115611cb8578080600190039150507f3031323334353637383961626364656600000000000000000000000000000000600a86061a8153600a8581611cac57611cab6132cc565b5b04945060008503611c63575b819350505050919050565b600073ffffffffffffffffffffffffffffffffffffffff168273ffffffffffffffffffffffffffffffffffffffff1603611d32576040517f08c379a0000000000000000000000000000000000000000000000000000000008152600401611d2990613347565b60405180910390fd5b611d3b81611783565b15611d7b576040517f08c379a0000000000000000000000000000000000000000000000000000000008152600401611d72906133b3565b60405180910390fd5b611d89600083836001611817565b611d9281611783565b15611dd2576040517f08c379a0000000000000000000000000000000000000000000000000000000008152600401611dc9906133b3565b60405180910390fd5b6001600360008473ffffffffffffffffffffffffffffffffffffffff1673ffffffffffffffffffffffffffffffffffffffff16815260200190815260200160002060008282540192505081905550816002600083815260200190815260200160002060006101000a81548173ffffffffffffffffffffffffffffffffffffffff021916908373ffffffffffffffffffffffffffffffffffffffff160217905550808273ffffffffffffffffffffffffffffffffffffffff16600073ffffffffffffffffffffffffffffffffffffffff167fddf252ad1be2c89b69c2b068fc378daa952ba7f163c4a11628f55a4df523b3ef60405160405180910390a4611edc60008383600161181d565b5050565b600080600090507a184f03e93ff9f4daa797ed6e38ed64bf6a1f0100000000000000008310611f3e577a184f03e93ff9f4daa797ed6e38ed64bf6a1f0100000000000000008381611f3457611f336132cc565b5b0492506040810190505b6d04ee2d6d415b85acef81000000008310611f7b576d04ee2d6d415b85acef81000000008381611f7157611f706132cc565b5b0492506020810190505b662386f26fc100008310611faa57662386f26fc100008381611fa057611f9f6132cc565b5b0492506010810190505b6305f5e1008310611fd3576305f5e1008381611fc957611fc86132cc565b5b0492506008810190505b6127108310611ff8576127108381611fee57611fed6132cc565b5b0492506004810190505b6064831061201b5760648381612011576120106132cc565b5b0492506002810190505b600a831061202a576001810190505b80915050919050565b50805461203f90612776565b6000825580601f106120515750612070565b601f01602090049060005260206000209081019061206f9190612073565b5b50565b5b8082111561208c576000816000905550600101612074565b5090565b6000604051905090565b600080fd5b600080fd5b60007fffffffff0000000000000000000000000000000000000000000000000000000082169050919050565b6120d9816120a4565b81146120e457600080fd5b50565b6000813590506120f6816120d0565b92915050565b6000602082840312156121125761211161209a565b5b6000612120848285016120e7565b91505092915050565b60008115159050919050565b61213e81612129565b82525050565b60006020820190506121596000830184612135565b92915050565b600081519050919050565b600082825260208201905092915050565b60005b8381101561219957808201518184015260208101905061217e565b60008484015250505050565b6000601f19601f8301169050919050565b60006121c18261215f565b6121cb818561216a565b93506121db81856020860161217b565b6121e4816121a5565b840191505092915050565b6000602082019050818103600083015261220981846121b6565b905092915050565b6000819050919050565b61222481612211565b811461222f57600080fd5b50565b6000813590506122418161221b565b92915050565b60006020828403121561225d5761225c61209a565b5b600061226b84828501612232565b91505092915050565b600073ffffffffffffffffffffffffffffffffffffffff82169050919050565b600061229f82612274565b9050919050565b6122af81612294565b82525050565b60006020820190506122ca60008301846122a6565b92915050565b6122d981612294565b81146122e457600080fd5b50565b6000813590506122f6816122d0565b92915050565b600080604083850312156123135761231261209a565b5b6000612321858286016122e7565b925050602061233285828601612232565b9150509250929050565b6000806000606084860312156123555761235461209a565b5b6000612363868287016122e7565b9350506020612374868287016122e7565b925050604061238586828701612232565b9150509250925092565b6000602082840312156123a5576123a461209a565b5b60006123b3848285016122e7565b91505092915050565b6123c581612211565b82525050565b60006020820190506123e060008301846123bc565b92915050565b6123ef81612129565b81146123fa57600080fd5b50565b60008135905061240c816123e6565b92915050565b600080604083850312156124295761242861209a565b5b6000612437858286016122e7565b9250506020612448858286016123fd565b9150509250929050565b600080fd5b600080fd5b7f4e487b7100000000000000000000000000000000000000000000000000000000600052604160045260246000fd5b612494826121a5565b810181811067ffffffffffffffff821117156124b3576124b261245c565b5b80604052505050565b60006124c6612090565b90506124d2828261248b565b919050565b600067ffffffffffffffff8211156124f2576124f161245c565b5b6124fb826121a5565b9050602081019050919050565b82818337600083830152505050565b600061252a612525846124d7565b6124bc565b90508281526020810184848401111561254657612545612457565b5b612551848285612508565b509392505050565b600082601f83011261256e5761256d612452565b5b813561257e848260208601612517565b91505092915050565b600080600080608085870312156125a1576125a061209a565b5b60006125af878288016122e7565b94505060206125c0878288016122e7565b93505060406125d187828801612232565b925050606085013567ffffffffffffffff8111156125f2576125f161209f565b5b6125fe87828801612559565b91505092959194509250565b600067ffffffffffffffff8211156126255761262461245c565b5b61262e826121a5565b9050602081019050919050565b600061264e6126498461260a565b6124bc565b90508281526020810184848401111561266a57612669612457565b5b612675848285612508565b509392505050565b600082601f83011261269257612691612452565b5b81356126a284826020860161263b565b91505092915050565b600080604083850312156126c2576126c161209a565b5b60006126d0858286016122e7565b925050602083013567ffffffffffffffff8111156126f1576126f061209f565b5b6126fd8582860161267d565b9150509250929050565b6000806040838503121561271e5761271d61209a565b5b600061272c858286016122e7565b925050602061273d858286016122e7565b9150509250929050565b7f4e487b7100000000000000000000000000000000000000000000000000000000600052602260045260246000fd5b6000600282049050600182168061278e57607f821691505b6020821081036127a1576127a0612747565b5b50919050565b7f4552433732313a20617070726f76616c20746f2063757272656e74206f776e6560008201527f7200000000000000000000000000000000000000000000000000000000000000602082015250565b600061280360218361216a565b915061280e826127a7565b604082019050919050565b60006020820190508181036000830152612832816127f6565b9050919050565b7f4552433732313a20617070726f76652063616c6c6572206973206e6f7420746f60008201527f6b656e206f776e6572206f7220617070726f76656420666f7220616c6c000000602082015250565b6000612895603d8361216a565b91506128a082612839565b604082019050919050565b600060208201905081810360008301526128c481612888565b9050919050565b7f4552433732313a2063616c6c6572206973206e6f7420746f6b656e206f776e6560008201527f72206f7220617070726f76656400000000000000000000000000000000000000602082015250565b6000612927602d8361216a565b9150612932826128cb565b604082019050919050565b600060208201905081810360008301526129568161291a565b9050919050565b7f4f6e6c79206f776e6572206f662074686520746f6b656e2063616e206275726e60008201527f2069740000000000000000000000000000000000000000000000000000000000602082015250565b60006129b960238361216a565b91506129c48261295d565b604082019050919050565b600060208201905081810360008301526129e8816129ac565b9050919050565b7f4552433732313a20696e76616c696420746f6b656e2049440000000000000000600082015250565b6000612a2560188361216a565b9150612a30826129ef565b602082019050919050565b60006020820190508181036000830152612a5481612a18565b9050919050565b7f4552433732313a2061646472657373207a65726f206973206e6f74206120766160008201527f6c6964206f776e65720000000000000000000000000000000000000000000000602082015250565b6000612ab760298361216a565b9150612ac282612a5b565b604082019050919050565b60006020820190508181036000830152612ae681612aaa565b9050919050565b7f4e6f7420616c6c6f77656420746f207472616e7366657220746f6b656e000000600082015250565b6000612b23601d8361216a565b9150612b2e82612aed565b602082019050919050565b60006020820190508181036000830152612b5281612b16565b9050919050565b7f4f776e61626c653a206e6577206f776e657220697320746865207a65726f206160008201527f6464726573730000000000000000000000000000000000000000000000000000602082015250565b6000612bb560268361216a565b9150612bc082612b59565b604082019050919050565b60006020820190508181036000830152612be481612ba8565b9050919050565b7f4f776e61626c653a2063616c6c6572206973206e6f7420746865206f776e6572600082015250565b6000612c2160208361216a565b9150612c2c82612beb565b602082019050919050565b60006020820190508181036000830152612c5081612c14565b9050919050565b7f4552433732313a207472616e736665722066726f6d20696e636f72726563742060008201527f6f776e6572000000000000000000000000000000000000000000000000000000602082015250565b6000612cb360258361216a565b9150612cbe82612c57565b604082019050919050565b60006020820190508181036000830152612ce281612ca6565b9050919050565b7f4552433732313a207472616e7366657220746f20746865207a65726f2061646460008201527f7265737300000000000000000000000000000000000000000000000000000000602082015250565b6000612d4560248361216a565b9150612d5082612ce9565b604082019050919050565b60006020820190508181036000830152612d7481612d38565b9050919050565b7f4552433732313a20617070726f766520746f2063616c6c657200000000000000600082015250565b6000612db160198361216a565b9150612dbc82612d7b565b602082019050919050565b60006020820190508181036000830152612de081612da4565b9050919050565b7f4552433732313a207472616e7366657220746f206e6f6e20455243373231526560008201527f63656976657220696d706c656d656e7465720000000000000000000000000000602082015250565b6000612e4360328361216a565b9150612e4e82612de7565b604082019050919050565b60006020820190508181036000830152612e7281612e36565b9050919050565b600081905092915050565b6000612e8f8261215f565b612e998185612e79565b9350612ea981856020860161217b565b80840191505092915050565b6000612ec18285612e84565b9150612ecd8284612e84565b91508190509392505050565b7f45524337323155524953746f726167653a2055524920736574206f66206e6f6e60008201527f6578697374656e7420746f6b656e000000000000000000000000000000000000602082015250565b6000612f35602e8361216a565b9150612f4082612ed9565b604082019050919050565b60006020820190508181036000830152612f6481612f28565b9050919050565b60008190508160005260206000209050919050565b60006020601f8301049050919050565b600082821b905092915050565b600060088302612fcd7fffffffffffffffffffffffffffffffffffffffffffffffffffffffffffffffff82612f90565b612fd78683612f90565b95508019841693508086168417925050509392505050565b6000819050919050565b600061301461300f61300a84612211565b612fef565b612211565b9050919050565b6000819050919050565b61302e83612ff9565b61304261303a8261301b565b848454612f9d565b825550505050565b600090565b61305761304a565b613062818484613025565b505050565b5b818110156130865761307b60008261304f565b600181019050613068565b5050565b601f8211156130cb5761309c81612f6b565b6130a584612f80565b810160208510156130b4578190505b6130c86130c085612f80565b830182613067565b50505b505050565b600082821c905092915050565b60006130ee600019846008026130d0565b1980831691505092915050565b600061310783836130dd565b9150826002028217905092915050565b6131208261215f565b67ffffffffffffffff8111156131395761313861245c565b5b6131438254612776565b61314e82828561308a565b600060209050601f831160018114613181576000841561316f578287015190505b61317985826130fb565b8655506131e1565b601f19841661318f86612f6b565b60005b828110156131b757848901518255600182019150602085019450602081019050613192565b868310156131d457848901516131d0601f8916826130dd565b8355505b6001600288020188555050505b505050505050565b600081519050919050565b600082825260208201905092915050565b6000613210826131e9565b61321a81856131f4565b935061322a81856020860161217b565b613233816121a5565b840191505092915050565b600060808201905061325360008301876122a6565b61326060208301866122a6565b61326d60408301856123bc565b818103606083015261327f8184613205565b905095945050505050565b600081519050613299816120d0565b92915050565b6000602082840312156132b5576132b461209a565b5b60006132c38482850161328a565b91505092915050565b7f4e487b7100000000000000000000000000000000000000000000000000000000600052601260045260246000fd5b7f4552433732313a206d696e7420746f20746865207a65726f2061646472657373600082015250565b600061333160208361216a565b915061333c826132fb565b602082019050919050565b6000602082019050818103600083015261336081613324565b9050919050565b7f4552433732313a20746f6b656e20616c7265616479206d696e74656400000000600082015250565b600061339d601c8361216a565b91506133a882613367565b602082019050919050565b600060208201905081810360008301526133cc81613390565b905091905056fea2646970667358221220d0c329479a427aa322b5abf8b772b50e74ee70acad1a2c3790afc7592a71480264736f6c63430008110033",
  "linkReferences": {},
  "deployedLinkReferences": {}
}